{
  "contractName": "CertificateTransparency",
  "abi": [
    {
      "inputs": [],
      "stateMutability": "nonpayable",
      "type": "constructor"
    },
    {
      "anonymous": false,
      "inputs": [
        {
          "indexed": true,
          "internalType": "address",
          "name": "owner",
          "type": "address"
        },
        {
          "indexed": false,
          "internalType": "uint256",
          "name": "certificateId",
          "type": "uint256"
        }
      ],
      "name": "CertificateAdded",
      "type": "event"
    },
    {
      "inputs": [
        {
          "internalType": "address",
          "name": "",
          "type": "address"
        },
        {
          "internalType": "uint256",
          "name": "",
          "type": "uint256"
        }
      ],
      "name": "certificateMap",
      "outputs": [
        {
          "internalType": "uint256",
          "name": "",
          "type": "uint256"
        }
      ],
      "stateMutability": "view",
      "type": "function",
      "constant": true
    },
    {
      "inputs": [
        {
          "internalType": "uint256",
          "name": "certificateId",
          "type": "uint256"
        }
      ],
      "name": "addCertificate",
      "outputs": [],
      "stateMutability": "nonpayable",
      "type": "function"
    },
    {
      "inputs": [
        {
          "internalType": "address",
          "name": "owner",
          "type": "address"
        }
      ],
      "name": "getCertificates",
      "outputs": [
        {
          "internalType": "uint256[]",
          "name": "",
          "type": "uint256[]"
        }
      ],
      "stateMutability": "view",
      "type": "function",
      "constant": true
    }
  ],
  "bytecode": "0x608060405234801561001057600080fd5b50610556806100206000396000f3fe608060405234801561001057600080fd5b50600436106100415760003560e01c8063445e547014610046578063a126846114610076578063f1c49c6214610092575b600080fd5b610060600480360381019061005b91906102d6565b6100c2565b60405161006d9190610451565b60405180910390f35b610090600480360381019061008b9190610312565b6100f3565b005b6100ac60048036038101906100a791906102ad565b6101ed565b6040516100b9919061040f565b60405180910390f35b600060205281600052604060002081815481106100de57600080fd5b90600052602060002001600091509150505481565b6000811415610137576040517f08c379a000000000000000000000000000000000000000000000000000000000815260040161012e90610431565b60405180910390fd5b6000803373ffffffffffffffffffffffffffffffffffffffff1673ffffffffffffffffffffffffffffffffffffffff1681526020019081526020016000208190806001815401808255809150506001900390600052602060002001600090919091909150553373ffffffffffffffffffffffffffffffffffffffff167f39671ea26ab7e6130ca1fb4671f44c0a654d15e1fe730aa7eea30cf9b7fb19dd826040516101e29190610451565b60405180910390a250565b60606000808373ffffffffffffffffffffffffffffffffffffffff1673ffffffffffffffffffffffffffffffffffffffff16815260200190815260200160002080548060200260200160405190810160405280929190818152602001828054801561027757602002820191906000526020600020905b815481526020019060010190808311610263575b50505050509050919050565b600081359050610292816104f2565b92915050565b6000813590506102a781610509565b92915050565b6000602082840312156102bf57600080fd5b60006102cd84828501610283565b91505092915050565b600080604083850312156102e957600080fd5b60006102f785828601610283565b925050602061030885828601610298565b9150509250929050565b60006020828403121561032457600080fd5b600061033284828501610298565b91505092915050565b600061034783836103f1565b60208301905092915050565b600061035e8261047c565b6103688185610494565b93506103738361046c565b8060005b838110156103a457815161038b888261033b565b975061039683610487565b925050600181019050610377565b5085935050505092915050565b60006103be601c836104a5565b91507f4365727469666963617465204944206d7573742062652076616c6964000000006000830152602082019050919050565b6103fa816104e8565b82525050565b610409816104e8565b82525050565b600060208201905081810360008301526104298184610353565b905092915050565b6000602082019050818103600083015261044a816103b1565b9050919050565b60006020820190506104666000830184610400565b92915050565b6000819050602082019050919050565b600081519050919050565b6000602082019050919050565b600082825260208201905092915050565b600082825260208201905092915050565b60006104c1826104c8565b9050919050565b600073ffffffffffffffffffffffffffffffffffffffff82169050919050565b6000819050919050565b6104fb816104b6565b811461050657600080fd5b50565b610512816104e8565b811461051d57600080fd5b5056fea264697066735822122063fc21c971b29bf7f57000d2fd465fb8b8693fc4db3a337b43ec84ed54daf01364736f6c63430008000033",
  "immutableReferences": {},
  "source": "// SPDX-License-Identifier: MIT\r\npragma solidity ^0.8.0;\r\n\r\ncontract CertificateTransparency {\r\n    // Mapping  lu tr chng ch\r\n    mapping(address => uint256[]) public certificateMap;\r\n\r\n    // S kin  thng bo khi mt chng ch c thm\r\n    event CertificateAdded(address indexed owner, uint256 certificateId);\r\n\r\n    constructor() {}\r\n\r\n    // Hm  thm chng ch\r\n    function addCertificate(uint256 certificateId) public {\r\n        require(certificateId != 0, \"Certificate ID must be valid\");\r\n\r\n        // Thm chng ch vo mapping\r\n        certificateMap[msg.sender].push(certificateId);\r\n\r\n        // Pht s kin khi chng ch c thm\r\n        emit CertificateAdded(msg.sender, certificateId);\r\n    }\r\n\r\n    // Hm  ly danh sch chng ch ca mt a ch\r\n    function getCertificates(address owner) public view returns (uint256[] memory) {\r\n        return certificateMap[owner];\r\n    }\r\n}\r\n\r\n",
  "sourcePath": "C:\\Users\\Trung\\Desktop\\Celestia-main (1)\\Celestia-main\\contracts\\CertificateTransparency.sol",
  "compiler": {
    "name": "solc",
    "version": "0.8.0+commit.c7dfd78e.Emscripten.clang"
  },
  "schemaVersion": "3.4.16",
  "updatedAt": "2025-02-20T16:48:04.451Z",
  "networkType": "ethereum",
  "devdoc": {
    "kind": "dev",
    "methods": {},
    "version": 1
  },
  "userdoc": {
    "kind": "user",
    "methods": {},
    "version": 1
  }
}