{
  "contractName": "CertificateTransparency",
  "abi": [
    {
      "inputs": [],
      "stateMutability": "nonpayable",
      "type": "constructor"
    },
    {
      "anonymous": false,
      "inputs": [
        {
          "indexed": true,
          "internalType": "bytes32",
          "name": "certHash",
          "type": "bytes32"
        },
        {
          "indexed": false,
          "internalType": "string",
          "name": "domain",
          "type": "string"
        },
        {
          "indexed": false,
          "internalType": "string",
          "name": "issuer",
          "type": "string"
        },
        {
          "indexed": false,
          "internalType": "uint256",
          "name": "timestamp",
          "type": "uint256"
        }
      ],
      "name": "CertificateIssued",
      "type": "event"
    },
    {
      "anonymous": false,
      "inputs": [
        {
          "indexed": true,
          "internalType": "bytes32",
          "name": "certHash",
          "type": "bytes32"
        }
      ],
      "name": "CertificateRevoked",
      "type": "event"
    },
    {
      "inputs": [
        {
          "internalType": "bytes32",
          "name": "",
          "type": "bytes32"
        }
      ],
      "name": "certificates",
      "outputs": [
        {
          "internalType": "string",
          "name": "domain",
          "type": "string"
        },
        {
          "internalType": "string",
          "name": "issuer",
          "type": "string"
        },
        {
          "internalType": "uint256",
          "name": "timestamp",
          "type": "uint256"
        },
        {
          "internalType": "bool",
          "name": "isRevoked",
          "type": "bool"
        }
      ],
      "stateMutability": "view",
      "type": "function",
      "constant": true
    },
    {
      "inputs": [],
      "name": "owner",
      "outputs": [
        {
          "internalType": "address",
          "name": "",
          "type": "address"
        }
      ],
      "stateMutability": "view",
      "type": "function",
      "constant": true
    },
    {
      "inputs": [
        {
          "internalType": "string",
          "name": "domain",
          "type": "string"
        },
        {
          "internalType": "string",
          "name": "issuer",
          "type": "string"
        }
      ],
      "name": "issueCertificate",
      "outputs": [],
      "stateMutability": "nonpayable",
      "type": "function"
    },
    {
      "inputs": [
        {
          "internalType": "bytes32",
          "name": "certHash",
          "type": "bytes32"
        }
      ],
      "name": "revokeCertificate",
      "outputs": [],
      "stateMutability": "nonpayable",
      "type": "function"
    }
  ],
  "bytecode": "0x608060405234801561001057600080fd5b50336000806101000a81548173ffffffffffffffffffffffffffffffffffffffff021916908373ffffffffffffffffffffffffffffffffffffffff160217905550610d9e806100606000396000f3fe608060405234801561001057600080fd5b506004361061004c5760003560e01c8063211bbe7114610051578063742f06881461006d5780638da5cb5b146100a0578063c6cbc52a146100be575b600080fd5b61006b60048036038101906100669190610678565b6100da565b005b61008760048036038101906100829190610726565b610268565b6040516100979493929190610806565b60405180910390f35b6100a86103b5565b6040516100b5919061089a565b60405180910390f35b6100d860048036038101906100d39190610726565b6103d9565b005b60008054906101000a900473ffffffffffffffffffffffffffffffffffffffff1673ffffffffffffffffffffffffffffffffffffffff163373ffffffffffffffffffffffffffffffffffffffff1614610168576040517f08c379a000000000000000000000000000000000000000000000000000000000815260040161015f90610927565b60405180910390fd5b600082824260405160200161017f939291906109a4565b6040516020818303038152906040528051906020012090506040518060800160405280848152602001838152602001428152602001600015158152506001600083815260200190815260200160002060008201518160000190816101e39190610be5565b5060208201518160010190816101f99190610be5565b506040820151816002015560608201518160030160006101000a81548160ff021916908315150217905550905050807f6aa5049566532374d8eb77423544658da943403816bc40386bcdbeacd3ba9ff284844260405161025b93929190610cb7565b60405180910390a2505050565b600160205280600052604060002060009150905080600001805461028b90610a08565b80601f01602080910402602001604051908101604052809291908181526020018280546102b790610a08565b80156103045780601f106102d957610100808354040283529160200191610304565b820191906000526020600020905b8154815290600101906020018083116102e757829003601f168201915b50505050509080600101805461031990610a08565b80601f016020809104026020016040519081016040528092919081815260200182805461034590610a08565b80156103925780601f1061036757610100808354040283529160200191610392565b820191906000526020600020905b81548152906001019060200180831161037557829003601f168201915b5050505050908060020154908060030160009054906101000a900460ff16905084565b60008054906101000a900473ffffffffffffffffffffffffffffffffffffffff1681565b60008054906101000a900473ffffffffffffffffffffffffffffffffffffffff1673ffffffffffffffffffffffffffffffffffffffff163373ffffffffffffffffffffffffffffffffffffffff1614610467576040517f08c379a000000000000000000000000000000000000000000000000000000000815260040161045e90610927565b60405180910390fd5b60006001600083815260200190815260200160002060020154036104c0576040517f08c379a00000000000000000000000000000000000000000000000000000000081526004016104b790610d48565b60405180910390fd5b600180600083815260200190815260200160002060030160006101000a81548160ff021916908315150217905550807f44d80a438cb4fa3b5aedbe551ce3d9382e37f446917b783e1dee70a03b4180e360405160405180910390a250565b6000604051905090565b600080fd5b600080fd5b600080fd5b600080fd5b6000601f19601f8301169050919050565b7f4e487b7100000000000000000000000000000000000000000000000000000000600052604160045260246000fd5b6105858261053c565b810181811067ffffffffffffffff821117156105a4576105a361054d565b5b80604052505050565b60006105b761051e565b90506105c3828261057c565b919050565b600067ffffffffffffffff8211156105e3576105e261054d565b5b6105ec8261053c565b9050602081019050919050565b82818337600083830152505050565b600061061b610616846105c8565b6105ad565b90508281526020810184848401111561063757610636610537565b5b6106428482856105f9565b509392505050565b600082601f83011261065f5761065e610532565b5b813561066f848260208601610608565b91505092915050565b6000806040838503121561068f5761068e610528565b5b600083013567ffffffffffffffff8111156106ad576106ac61052d565b5b6106b98582860161064a565b925050602083013567ffffffffffffffff8111156106da576106d961052d565b5b6106e68582860161064a565b9150509250929050565b6000819050919050565b610703816106f0565b811461070e57600080fd5b50565b600081359050610720816106fa565b92915050565b60006020828403121561073c5761073b610528565b5b600061074a84828501610711565b91505092915050565b600081519050919050565b600082825260208201905092915050565b60005b8381101561078d578082015181840152602081019050610772565b60008484015250505050565b60006107a482610753565b6107ae818561075e565b93506107be81856020860161076f565b6107c78161053c565b840191505092915050565b6000819050919050565b6107e5816107d2565b82525050565b60008115159050919050565b610800816107eb565b82525050565b600060808201905081810360008301526108208187610799565b905081810360208301526108348186610799565b905061084360408301856107dc565b61085060608301846107f7565b95945050505050565b600073ffffffffffffffffffffffffffffffffffffffff82169050919050565b600061088482610859565b9050919050565b61089481610879565b82525050565b60006020820190506108af600083018461088b565b92915050565b7f4f6e6c79206f776e65722063616e20706572666f726d2074686973206163746960008201527f6f6e000000000000000000000000000000000000000000000000000000000000602082015250565b600061091160228361075e565b915061091c826108b5565b604082019050919050565b6000602082019050818103600083015261094081610904565b9050919050565b600081905092915050565b600061095d82610753565b6109678185610947565b935061097781856020860161076f565b80840191505092915050565b6000819050919050565b61099e610999826107d2565b610983565b82525050565b60006109b08286610952565b91506109bc8285610952565b91506109c8828461098d565b602082019150819050949350505050565b7f4e487b7100000000000000000000000000000000000000000000000000000000600052602260045260246000fd5b60006002820490506001821680610a2057607f821691505b602082108103610a3357610a326109d9565b5b50919050565b60008190508160005260206000209050919050565b60006020601f8301049050919050565b600082821b905092915050565b600060088302610a9b7fffffffffffffffffffffffffffffffffffffffffffffffffffffffffffffffff82610a5e565b610aa58683610a5e565b95508019841693508086168417925050509392505050565b6000819050919050565b6000610ae2610add610ad8846107d2565b610abd565b6107d2565b9050919050565b6000819050919050565b610afc83610ac7565b610b10610b0882610ae9565b848454610a6b565b825550505050565b600090565b610b25610b18565b610b30818484610af3565b505050565b5b81811015610b5457610b49600082610b1d565b600181019050610b36565b5050565b601f821115610b9957610b6a81610a39565b610b7384610a4e565b81016020851015610b82578190505b610b96610b8e85610a4e565b830182610b35565b50505b505050565b600082821c905092915050565b6000610bbc60001984600802610b9e565b1980831691505092915050565b6000610bd58383610bab565b9150826002028217905092915050565b610bee82610753565b67ffffffffffffffff811115610c0757610c0661054d565b5b610c118254610a08565b610c1c828285610b58565b600060209050601f831160018114610c4f5760008415610c3d578287015190505b610c478582610bc9565b865550610caf565b601f198416610c5d86610a39565b60005b82811015610c8557848901518255600182019150602085019450602081019050610c60565b86831015610ca25784890151610c9e601f891682610bab565b8355505b6001600288020188555050505b505050505050565b60006060820190508181036000830152610cd18186610799565b90508181036020830152610ce58185610799565b9050610cf460408301846107dc565b949350505050565b7f436572746966696361746520646f6573206e6f74206578697374000000000000600082015250565b6000610d32601a8361075e565b9150610d3d82610cfc565b602082019050919050565b60006020820190508181036000830152610d6181610d25565b905091905056fea2646970667358221220f59edd6644b591e962eb8dad5fb9803adb8d24cb63cad1c23315231b8d2e786d64736f6c63430008130033",
  "immutableReferences": {},
  "source": "// SPDX-License-Identifier: MIT\r\npragma solidity ^0.8.19;\r\n\r\ncontract CertificateTransparency {\r\n    address public owner;\r\n\r\n    struct Certificate {\r\n        string domain;\r\n        string issuer;\r\n        uint256 timestamp;\r\n        bool isRevoked;\r\n    }\r\n\r\n    mapping(bytes32 => Certificate) public certificates;\r\n    event CertificateIssued(bytes32 indexed certHash, string domain, string issuer, uint256 timestamp);\r\n    event CertificateRevoked(bytes32 indexed certHash);\r\n\r\n    modifier onlyOwner() {\r\n        require(msg.sender == owner, \"Only owner can perform this action\");\r\n        _;\r\n    }\r\n\r\n    constructor() {\r\n        owner = msg.sender;\r\n    }\r\n\r\n    function issueCertificate(string memory domain, string memory issuer) public onlyOwner {\r\n        bytes32 certHash = keccak256(abi.encodePacked(domain, issuer, block.timestamp));\r\n        certificates[certHash] = Certificate(domain, issuer, block.timestamp, false);\r\n        emit CertificateIssued(certHash, domain, issuer, block.timestamp);\r\n    }\r\n\r\n    function revokeCertificate(bytes32 certHash) public onlyOwner {\r\n        require(certificates[certHash].timestamp != 0, \"Certificate does not exist\");\r\n        certificates[certHash].isRevoked = true;\r\n        emit CertificateRevoked(certHash);\r\n    }\r\n}",
  "sourcePath": "C:\\Users\\Trung\\Desktop\\Celestia-main\\contracts\\CertificateTransparency.sol",
  "compiler": {
    "name": "solc",
    "version": "0.8.19+commit.7dd6d404.Emscripten.clang"
  },
  "schemaVersion": "3.4.16",
  "updatedAt": "2025-02-24T09:34:46.640Z",
  "networkType": "ethereum",
  "devdoc": {
    "kind": "dev",
    "methods": {},
    "version": 1
  },
  "userdoc": {
    "kind": "user",
    "methods": {},
    "version": 1
  }
}